:020000040800F2
:1000000030170020819E00089D9E0008A19E0008D8
:10001000A59E0008A99E0008AD9E000800000000F3
:10002000000000000000000000000000B19E000879
:10003000B59E000800000000B99E000885970008E2
:10004000C19E0008C59E00081D7B0008000000003E
:1000500000000000CD9E0008D3970008D797000845
:10006000D99E000800000000DD9E0008E19E000807
:10007000E59E000800000000E99E0008ED9E0008D3
:10008000F19E0008DB97000800000000F99E0008C0
:10009000FD9E0008000000000000000000000000BD
:1000A0000000000000000000000000000B980008A5
:1000B000059F0008099F00080D9F0008119F000878
:1000C0000000000000000000000000000000000030
:1000D000000000000000000000F00C02323101318D
:1000E00032020CF000030C101122222211100C031A
:1000F00000F0FCFECECFFFCFCEFEFCF000030F1FC2
:100100001E3D3D3D1E1F0F030000F0F8F8F0E0F02B
:10011000F8F8F0000000000103070F0703010000DA
:10012000000080C0E0F0F8F0E0C0800000000001B6
:1001300003070F07030100000080C0C0B8FCFCFCEF
:10014000B8C0C08000030707131B1F1B130707035A
:10015000000080C0E0F0FCF0E0C080000000030779
:10016000171B1F1B170703000000000080C0C08082
:100170000000000000000000010303010000000077
:10018000FFFFFFFF7F3F3F7FFFFFFFFFFFFFFFFFFF
:10019000FEFCFCFEFFFFFFFF000000C0201010204F
:1001A000C000000000000003040808040300000071
:1001B000FFFFFF3FDFEFEFDF3FFFFFFFFFFFFFFC32
:1001C000FBF7F7FBFCFFFFFF0080C060202060C84A
:1001D000A81878000003070C08080C0703000000AB
:1001E00000000070F88C04048CF87000000000001F
:1001F00008093F3F09080000000000000000FF0E52
:100200007C3800000000000C1E1E0F0000000000E3
:1002100000000000FF3366CC98F0000000060F0FCE
:1002200007003078793F00000080C8F030181E18B1
:1002300030F0C88000000907060C3C0C06070900D6
:10024000000000FCF8F0E0C0800000000000001F8B
:100250000F0703010000000000000080C0E0F0F87C
:10026000FC000000000000000103070F1F00000059
:1002700000000010181CFE1C1810000000000004F4
:100280000C1C3F1C0C040000000000FEFE0000FEE1
:10029000FE00000000000037370000373700000084
:1002A00000387CC682FEFE02FEFE02000000000056
:1002B000003F3F003F3F00000000DCFE22222222E0
:1002C000E6C4000000000819111111111F0E0000F2
:1002D00000000000000000000000000000000038E6
:1002E0003838383838383800000000080C0EFF0E57
:1002F0000C080000000000444C5C7F5C4C44000093
:1003000000000010181CFE1C181000000000000067
:1003100000003F0000000000000000000000FE00A0
:1003200000000000000000040C1C3F1C0C04000036
:1003300000008080808080F0E0C08000000000002D
:100340000000000703010000000080C0E0F0808092
:100350008080800000000001030700000000000012
:10036000000000000000000000000000003F20200E
:1003700020202020202020000080C0E0F08080800D
:10038000F0E0C08000000103070000000703010047
:100390000000000080C0E0C08000000000040607EC
:1003A0000707070707070604002060E0E0E0E0E039
:1003B000E0E06020000000000103070301000000EE
:1003C000000000000000000000000000000000002D
:1003D0000000000000000000000000007CFFFF7C27
:1003E00000000000000000000033330000000000A7
:1003F0000000003C3C00003C3C000000000000000D
:10040000000000000000000000001090F07E1E9030
:10041000F07E1E1000021E1F03021E1F03020000BA
:10042000000078FCCCFFFFCCCC8800000000040C5E
:100430000C3F3F0C0F07000000003838380080C028
:10044000E070381C0030381C0E07030138383800C3
:10045000000000B8FCC6E23E1C00000000001F3F88
:100460003121371E1C36220000000000273F1F00EC
:10047000000000000000000000000000000000007C
:10048000000000F0FCFE0701010000000000000376
:100490000F1F382020000000000000010107FEFCB3
:1004A000F00000000000002020381F0F03000000B3
:1004B000000098B8E0F8F8E0B898000000000C0ED2
:1004C000030F0F030E0C00000000808080F0F0800E
:1004D0008080000000000101010F0F0101010000F8
:1004E000000000000000000000000000000000000C
:1004F000B8F87800000000000000808080808080D4
:1005000080800000000001010101010101010000E3
:1005100000000000000000000000000000000000DB
:100520003838380000000000000000000080C0E003
:1005300070381C0E00181C0E07030100000000009C
:1005400000F8FE060383C363331EFEF800071F1E78
:100550003331303030181F070000000C0C0EFFFF45
:10056000000000000000003030303F3F30303000ED
:10057000001C1E07030383C3E3773E1C0030383C96
:100580003E37333130303030000C0E07C3C3C3C3A5
:10059000C3E77E3C000C1C383030303030391F0E41
:1005A00000C0E070381C0E07FFFF000000030303CB
:1005B000030303033F3F0303003F7F6363636363FE
:1005C00063E3C383000C1C383030303030381F0FE9
:1005D00000C0F0F8DCCEC7C3C3C38000000F1F39D2
:1005E0003030303030391F0F00030303030303C3DF
:1005F000F33F0F0300000000303C0F030000000039
:100600000000BCFEE7C3C3C3E7FEBC00000F1F39F8
:100610003030303030391F0F003C7EE7C3C3C3C3D6
:10062000C3E7FEFC000000303030381C0E0703002A
:10063000000000007070700000000000000000006A
:100640001C1C1C0000000000000000007070700006
:1006500000000000000000009CFC7C000000000086
:100660000000C0E0F0381C0E07030000000000018D
:1006700003070E1C3830000000006060606060609E
:100680006060600000000606060606060606060014
:10069000000003070E1C38F0E0C0000000003038F6
:1006A0001C0E070301000000001C1E070383C3E3A8
:1006B000773E1C00000000000037370000000000FB
:1006C00000F8FE07F3FB1BFBFB07FEF8000F1F18EB
:1006D0003337363737360301000000E0FC1F1FFCBC
:1006E000E000000000383F0706060606073F380016
:1006F00000FFFFC3C3C3C3E7FEBC0000003F3F30A1
:1007000030303030391F0F0000F0FC0E07030303B8
:10071000070E0C0000030F1C38303030381C0C0062
:1007200000FFFF03030303070EFCF000003F3F3010
:10073000303030381C0F030000FFFFC3C3C3C3C3F6
:10074000C3030300003F3F303030303030303000E2
:1007500000FFFFC3C3C3C3C3C3030300003F3F0085
:10076000000000000000000000F0FC0E0703C3C3FF
:10077000C3C7C60000030F1C38303030303F3F0085
:1007800000FFFFC0C0C0C0C0C0FFFF00003F3F006F
:1007900000000000003F3F000000000303FFFF03D4
:1007A0000300000000000030303F3F303000000008
:1007B000000000000000000000FFFF00000E1E38D7
:1007C00030303030381F070000FFFFC0E0F0381C29
:1007D0000E070300003F3F000103070E1C383000E6
:1007E00000FFFF000000000000000000003F3F305D
:1007F000303030303030300000FFFF1E78E0E078DD
:100800001EFFFF00003F3F0000010100003F3F00CE
:1008100000FFFF0E38F0C00000FFFF00003F3F0068
:10082000000003071C3F3F0000F0FC0E0703030716
:100830000EFCF00000030F1C383030381C0F030092
:1008400000FFFF8383838383C7FE7C00003F3F015B
:10085000010101010100000000F0FC0E0703030785
:100860000EFCF00000030F1C3830363E1C3F3300F6
:1008700000FFFF8383838383C7FE7C00003F3F012B
:100880000103070F1D383000003C7EE7C3C3C3C31C
:10089000C78E0C00000C1C3830303030391F0F0070
:1008A0000000030303FFFF03030300000000000038
:1008B000003F3F000000000000FFFF0000000000BC
:1008C00000FFFF0000071F3830303030381F0700AE
:1008D00000073FF8C00000C0F83F0700000000011B
:1008E0000F3E3E0F0100000000FFFF00008080006F
:1008F00000FFFF00003F3F1C060303061C3F3F00B4
:1009000000030F1C30E0E0301C0F030000303C0EF1
:10091000030101030E3C300000030F3CF0C0C0F0A7
:100920003C0F030000000000003F3F0000000000FB
:100930000003030303C3E3331F0F030000303C3EF7
:100940003331303030303000000000FFFF0303034C
:10095000030000000000003F3F3030303000000056
:10096000000E1C3870E0C080000000000000000095
:1009700000000103070E1C1800000003030303FF1F
:10098000FF000000000000303030303F3F0000002A
:10099000006070381C0E070E1C38706000000000EC
:1009A0000000000000000000000000000000000047
:1009B0000000000000C0C0C0C0C0C0C0C0C0C0C0F7
:1009C00000000000003E7E4E00000000000000001D
:1009D00000000000000000000000406060606060F7
:1009E00060E0C000001C3E3333333333333F3F00FD
:1009F00000FFFFC060606060E0C08000003F3F30EB
:100A000030303030381F0F000080C0E06060606020
:100A100060C08000000F1F383030303030180800C0
:100A20000080C0E0606060E0C0FFFF00000F1F3882
:100A300030303030303F3F000080C0E060606060A8
:100A400060C08000000F1F3B33333333331301008A
:100A500000C0C0FCFEC7C3C3030000000000003F8D
:100A60003F000000000000000080C0E060606060A7
:100A700060E0E0000003C7CECCCCCCCCE67F3F00EA
:100A800000FFFFC0606060E0C0800000003F3F00EA
:100A9000000000003F3F00000000000060ECEC00A0
:100AA0000000000000000030303F3F303000000008
:100AB00000000000000060ECEC000000000000609E
:100AC000E0C0C0FF7F0000000000FFFF0080C0E02A
:100AD0006000000000003F3F03070F1C383000009B
:100AE0000000000003FFFF000000000000000030D5
:100AF000303F3F303000000000E0C0E0E0C0C0E028
:100B0000E0C08000003F3F00003F3F00003F3F004B
:100B10000000E0E060606060E0C0800000003F3FF7
:100B200000000000003F3F000080C0E060606060A7
:100B3000E0C08000000F1F3830303030381F0F0009
:100B400000E0E06060606060E0C0800000FFFF0CDB
:100B5000181818181C0F07000080C0E06060606063
:100B600060E0E00000070F1C181818180CFFFF00C9
:100B70000000E0E0C060606060E0C00000003F3F57
:100B8000000000000000000000C0E06060606060E5
:100B900040000000001133333333333F1E000000A8
:100BA000006060FEFE606060000000000000001F4A
:100BB0003F3030303000000000E0E0000000000076
:100BC00000E0E000000F1F3830303030183F3F00A9
:100BD0000060E0800000000080E06000000001078D
:100BE0001E38381E0701000000E0E00000E0E000D1
:100BF00000E0E00000071F381C0F0F1C381F070023
:100C00000060E0C0800080C0E06000000030381D5F
:100C10000F070F1D38300000000060E080000080EA
:100C2000E060000000000081E77E1E070100000078
:100C3000006060606060E0E0602000000030383CF0
:100C40003633313030300000000080C0FC7E0703B6
:100C500003030000000000011F3F7060606000009F
:100C60000000000000FFFF00000000000000000086
:100C7000003F3F00000000000000030303077EFC6C
:100C8000C08000000000606060703F1F0100000035
:100C90000010180C040C1810180C040000000000C0
:100CA0000000000000000000000080C060303060E4
:100CB000C0800000000F0F0C0C0C0C0C0C0F0F0070
:100CC0005500AA005500AA005500AA005500AA0028
:100CD0005500AA005500AA00AA55AA55AA55AA551A
:100CE000AA55AA55AA55AA55AA55AA55AA55AA550C
:100CF000AAFF55FFAAFF55FFAAFF55FFAAFF55FF00
:100D0000AAFF55FFAAFF55FF0000000000FFFF00EB
:100D1000000000000000000000FFFF0000000000D5
:100D20008080808080FFFF00000000000101010141
:100D300001FFFF0000000000C0C0C0C0C0FFFF00F6
:100D4000000000000606060606FFFF000000000087
:100D50008080FFFF00FFFF00000000000101FFFF97
:100D600000FFFF0000000000808080808080800005
:100D7000000000000101FFFF01FFFF000000000074
:100D8000C0C0C0C0C0C0C00000000000060606060B
:100D900006FFFF0000000000C0C0FFFF00FFFF00D3
:100DA000000000000606FEFE00FFFF00000000003D
:100DB0000000FFFF00FFFF00000000000000FFFF39
:100DC00000FFFF0000000000C0C0C0C0C0C0C000E5
:100DD000000000000606FEFE00FFFF00000000000D
:100DE000C0C0FFFF00FFFF0000000000060606066F
:100DF00006070700000000008080FFFF80FFFF0063
:100E000000000000010101010101010000000000DB
:100E1000C0C0C0C0C0FFFF000000000006060606FC
:100E2000060707000000000080808080808080002E
:100E3000000000000101010101FFFF0000000000AF
:100E40000000000000FFFF80808080800000000024
:100E500000010101010101018080808080FFFF808D
:100E60008080808001010101010101010101010176
:100E7000808080808080808080808080010101016E
:100E800001FFFF01010101010000000000FFFF80E0
:100E9000808080800000000000FFFF01010101014F
:100EA000808080808080808080808080010101013E
:100EB00001010101010101018080808080FFFF802C
:100EC000808080800101010101FFFF01010101011A
:100ED0000000000000FFFFC0C0C0C0C00000000054
:100EE00000FFFF06060606060000FFFF00FFFF806A
:100EF000808080800000FFFF00FFFF0101010101F1
:100F00000000FFFF00FFFFC0C0C0C0C00000070717
:100F100006060606060606060000C0C0C0C0C0C021
:100F2000C0C0C0C00000FFFF00FEFE0606060606A9
:100F3000C0C0FFFF00FFFFC0C0C0C0C0060606065D
:100F40000606060606060606C0C0C0C0C0C0C0C071
:100F5000C0C0C0C00606FEFE00FEFE06060606066F
:100F60000000FFFF00FFFFC0C0C0C0C00000FFFFC7
:100F700000FEFE0606060606C0C0C0C0C0C0C0C057
:100F8000C0C0C0C006060606060606060606060619
:100F9000C0C0FFFF00FFFFC0C0C0C0C00606FEFE0D
:100FA00000FEFE0606060606C0C0C0C0C0FFFFC0A9
:100FB000C0C0C0C0060606060606060606060606E9
:100FC0008080FFFF80FFFF80808080800101010121
:100FD0000101010101010101C0C0C0C0C0C0C0C009
:100FE000C0C0C0C00606060606FEFE0606060606C9
:100FF0008080808080808080808080800101FFFFF1
:1010000001FFFF01010101010000FFFF80FFFF80E0
:1010100080808080000001010101010101010101C6
:101020000000000000FFFFC0C0C0C0C00000000002
:1010300000070706060606060000000000C0C0C044
:10104000C0C0C0C00000000000FFFF060606060684
:101050000000808080808080808080800000FFFF92
:1010600001FFFF01010101018080FFFF00FFFF8000
:10107000808080800101FFFF00FFFF01010101016D
:1010800000F8F89B9B98989B9B181800003F3F31F5
:101090003131313131303000C0C0C0C0C0FFFFC07D
:1010A000C0C0C0C00606060606FEFE060606060608
:1010B0008080808080FFFF000000000001010101AE
:1010C000010101000000000000000000008080809D
:1010D000808080800000000000FFFF01010101010D
:1010E000FFFFFFFFFFFFFFFFFFFFFFFFFFFFFFFF10
:1010F000FFFFFFFFFFFFFFFF0000000000000000F8
:1011000000000000FFFFFFFFFFFFFFFFFFFFFFFFEB
:10111000FFFFFFFFFFFF000000000000FFFFFFFFD9
:10112000FFFF000000000000000000000000FFFFC3
:10113000FFFFFFFF000000000000FFFFFFFFFFFFB9
:10114000FFFFFFFFFFFFFFFFFFFFFFFF00000000AB
:1011500000000000000000000000F008081020104F
:101160000808F00000000001020408040201000069
:1011700000E0F0F0F0E8E4E4E4E4E8F00001030764
:10118000070707070707030100E030303028242451
:10119000242428F0000102040404040404040201CD
:1011A00000000000807008F800000000000000004F
:1011B000000000000000000000808080A09C82BE33
:1011C00080808000000000000608083E000000004B
:1011D000000060E888101088E860000000000081CE
:1011E000E77E1E07010000000000001E3F33333F72
:1011F0001E000000000000000000000000000000D1
:101200000080C0EC6C60606C6CC08000000F1F330D
:101210003333333333130300000000C0E0E0E0E079
:10122000C0000000000000030707070703000000DC
:10123000000000000080C0800000000000000000EE
:101240000001030100000000000000000000FEFE9D
:1012500006060606000003060C183F3F00000000CB
:10126000FFFF1EF08000FFFF1C36361C3F3F0000D2
:10127000031E3F3F0303030300F6FE180C0C0C0C87
:1012800018FEF600001B1F060C0C0C0C061F1B00A2
:1012900000000000F0F0F0F000000000000000008E
:1012A0000303030300000000000000000000000032
:1012B000000000000000000000000000000000002E
:1012C00000F0FC0E0703030303FFFF00003F3F0392
:1012D00003030303033F3F0000FFFFC3C3C3C3C3B4
:1012E000C3830300003F3F3030303030391F0F00E0
:1012F00000FFFFC3C3C3C3E7FEBC0000003F3F3095
:1013000030303030391F0F0000FFFF0303030303A9
:1013100003030300003F3F00000000000000000046
:1013200000F0FC0E0703030303FFFF00F0FF3F3054
:1013300030303030303FFFF000FFFFC3C3C3C3C3C2
:10134000C3030300003F3F303030303030303000D6
:101350000F3EF8E0C0FFFFC0E0F81E073C1F07018A
:10136000003F3F0001071F3C000C0E07C3C3C3C36F
:10137000C3E77E3C000C1C383030303030391F0E53
:1013800000FFFF0000C0F0380EFFFF00003F3F1CD1
:1013900007030000003F3F0000FFFF0000C6F338D6
:1013A0000EFFFF00003F3F1C07030000003F3F000F
:1013B00000FFFFC0E0F0381C0E070300003F3F00B5
:1013C0000103070E1C38300000F0FC0E0703030376
:1013D00003FFFF00003F3F0000000000003F3F0010
:1013E00000FFFF1E78E0E0781EFFFF00003F3F0097
:1013F00000010100003F3F0000FFFFC0C0C0C0C0AF
:10140000C0FFFF00003F3F0000000000003F3F0022
:1014100000F0FC0E070303070EFCF00000030F1C96
:10142000383030381C0F030000FFFF0303030303B1
:1014300003FFFF00003F3F0000000000003F3F00AF
:1014400000FFFF8383838383C7FE7C00003F3F014F
:10145000010101010100000000F0FC0E070303037D
:10146000070E0C0000030F1C38303030381C0C0005
:101470000000030303FFFF0303030000000000005C
:10148000003F3F0000000000007FFFC0C0C0C0C0A0
:10149000C0FFFF000018383030303030381F0700F0
:1014A00000F8FC0C0CFFFF0C0CFCF8000003070616
:1014B000063F3F060607030000030F1C30E0E03044
:1014C0001C0F030000303C0E030101030E3C3000F2
:1014D00000FFFF0000000000FFFF0000003F3F3062
:1014E000303030303FFFF000007FFFC0C0C0C0C0D0
:1014F000C0FFFF000000000000000000003F3F00B0
:1015000000FFFF0000FFFF0000FFFF00003F3F3033
:10151000303F3F30303F3F0000FFFF0000FFFF0043
:1015200000FFFF00003F3F30303F3F30303FFFF0D3
:101530000F0F03FFFF606060E0C080000000003F0D
:101540003F303030381F0F0000FFFF6060E0C08088
:1015500000FFFF00003F3F3030381F0F003F3F00CB
:1015600000FFFF6060606060E0C08000003F3F30CF
:1015700030303030381F0F00000C0E07C3C3C3C714
:10158000CEFCF000000C1C38303030381C0F03004B
:10159000FFFFC0F0FC0E0703070EFCF03F3F000307
:1015A0000F1C3830381C0F03007CFEC783838383F5
:1015B00083FFFF000030381D0F070301013F3F008C
:1015C000000040606060606060E0C000001C3E336E
:1015D00033333333333F3F0000F0F898D8D8D8D8AE
:1015E000D88C0000001F3F3130303030391F0F00E1
:1015F0000000E0E060606060E0C0000000003F3F8D
:10160000323232323F1D00000000E0E06060606076
:101610006060000000003F3F00000000000000008C
:10162000000080C060606060E0E0000000F0FF3F0C
:10163000303030303FFFF0000080C0E0606060601C
:1016400060C08000000F1F3B33333333331301007E
:1016500060E0C08000E0E00080C0E06030381F073C
:10166000033F3F03071F3830000080C060606060A8
:10167000C080000000000818303232321F0D000018
:101680000000E0E00000000080E0E00000003F3FDC
:10169000180C0603013F3F000000E0E00000180CBA
:1016A00080E0E00000003F3F180C0603013F3F00D0
:1016B0000000E0E00080C0E06000000000003F3F6C
:1016C00003070F1C38300000000080C060606060BD
:1016D000E0E0000000003F3F000000003F3F00004E
:1016E00000E0E0E0C00000C0E0E0E000003F3F00BC
:1016F00001030301003F3F000000E0E000000000A4
:1017000000E0E00000003F3F06060606063F3F00FF
:101710000080C0E060606060E0C08000000F1F38A3
:1017200030303030381F0F000000E0E06060606053
:1017300060E0E00000003F3F00000000003F3F008D
:1017400000E0E06060606060E0C0800000FFFF0CCF
:10175000181818181C0F07000080C0E06060606057
:1017600060C08000000F1F38303030303018080063
:101770000000606060E0E060606000000000000069
:10178000003F3F0000000000000060E0800000809B
:10179000E060000000000081E77E1E0701000000FD
:1017A0000080C0C0C0E0E0C0C0C08000001F3F306B
:1017B00030FFFF30303F1F000060E0C0800080C07D
:1017C000E06000000030381D0F070F1D38300000AA
:1017D0000000E0E000000000E0E0000000003F3F0B
:1017E000303030303FFFF0000000E0E0000000004B
:1017F000E0E0000000000307060606063F3F000089
:1018000000E0E00000E0E00000E0E000003F3F30EA
:10181000303F3F30303F3F0000E0E00000E0E000BC
:1018200000E0E000003F3F30303F3F30303FFFF00E
:1018300000E0E060E0E000000000000000000000C8
:101840003F3F3333333F1E0000E0E0000000000064
:1018500000E0E000003F3F3333333F1E003F3F00D6
:101860000000E0E0000000000000000000003F3F3A
:10187000333333333F1E00000080C060606060601F
:10188000C0800000000818303033333B1F0F0000C9
:1018900000E0E00080C0E060E0C08000003F3F0367
:1018A0000F1F3830381F0F000000C0E0606060601C
:1018B000E0E000000000313B1E0E06023F3F00004A
:1018C00003E011F8013B00F8013B13465A1E002BC0
:1018D000F7D17047130003D00A46194601F0B6B994
:1018E0007047F8B504460D46266BAE421DD02079F0
:1018F00090B100F01CF8A8B92071606A216A08183C
:10190000864209D2E77804E0206A861900F00FF8D1
:101910007F1EFFB2022FF7D23DB101232A4600F00D
:10192000E3FB08B10120F2BD25630020F2BD0123D5
:10193000324604F13401607801F0A1BB38B50446A9
:101940000021FFF7CEFF050057D1207803284DD1A5
:10195000607900284AD0002020634FF400720021F3
:1019600004F13400FFF7B6FF552084F83202AA20B4
:1019700084F83302522084F8340084F83500612062
:1019800084F83600412084F83700722084F8180269
:1019900084F81902412084F81A02612084F81B029D
:1019A000206984F81C0220690004000E84F81D02DE
:1019B0002069000C84F81E022069000E84F81F02C2
:1019C000E06884F82002E0680004000E84F8210238
:1019D000E068000C84F82202E068000E84F823021C
:1019E00001236269FFF7A5FF00206071002200213A
:1019F000607801F08DFB00B10125284632BD891EBB
:101A0000C269921E914201D3002070478278C06A59
:101A100002FB01007047F8B504460D46022D02D3C3
:101A2000E069854201D30120F2BD2078012804D06D
:101A300048D303282ED01DD344E005EB550700F012
:101A4000B0F800283ED1F80514EBD05090F834607F
:101A50007F1C00F0A6F8A8BBF80514EBD05090F856
:101A6000340046EA0026E80701D53009F2BD30050A
:101A7000000DF2BD606A00EB152100F095F808BB7F
:101A80006800C00514EBD05034304178007840EA4B
:101A90000120F2BD606A00EBD51100F085F888B92D
:101AA000A800C00514EBD0503430C17882781204FD
:101AB00042EA0161427841EA0221007808430001CC
:101AC0000009F2BD4FF0FF30F2BDF8B504460E46F6
:101AD0001546022E02D3E069864201D30220F2BDF0
:101AE0002078012804D058D303283DD02CD354E0CB
:101AF00006EB560700F055F800284FD1F80514EB17
:101B0000D05000F1340116F001061DBF087800F036
:101B10000F0040EA0510284608707F1C0120207144
:101B200000F03FF8002839D1F90514EBD1513431D8
:101B30000EB12A0906E00A7802F0F0022B0A03F03F
:101B40000F031A430A7029E0606A00EB162100F0C7
:101B50002BF818BB7100C90514EBD15101F8345FA3
:101B60002D042A0E4A7019E0606A00EBD61100F0CD
:101B70001BF898B9B100C90514EBD1513431CA78BA
:101B8000120602F0704215430D702A04120E4A70BC
:101B90002A0C8A702A0ECA7000E0022001212171ED
:101BA000F2BD606A00EB572120469AE6F8B504467C
:101BB0000D46022D0BD3E069854208D20026294646
:101BC0002046FFF728FF070019D0012F01D1022678
:101BD00015E017F1010F01D1012610E0002200F0FD
:101BE00010F806000BD1206910F1010F03D0401C42
:101BF0002061012060713D46E0698542DFD33046B7
:101C0000F2BD2946204660E7F8B504460E0006D12D
:101C1000E76817B1E06987420BD3012709E0FFF7B6
:101C2000FAFE022801D20120F2BDE169884231D3D7
:101C300037463D466D1CE069854202D30225022FDE
:101C400020D329462046FFF7E6FEA0B96FF0704288
:101C5000FFF7D7FF20B926B12A463146FFF7D2FF5A
:101C600090B9E560206910F1010F12D0401E20618B
:101C7000012060710DE010F1010F18BF012809D09B
:101C8000BD42D7D10020F2BD01280CBF4FF0FF3577
:101C900001252846F2BD70B504460D46E580A168D1
:101CA000012926D02068C269914222D219B901784F
:101CB000032901D1816A31B90021E16001898D4296
:101CC00017D2806A1AE08078060100E0AD1B206818
:101CD000ADB2B5420FD3FFF79EFE014611F1010FE1
:101CE00001D1012070BD022903D32068C06981425F
:101CF000ECD3022070BDE160FFF781FE00EB151010
:101D0000206105F00F00216801EB40103430606164
:101D1000002070BDF8B504460F46E088451CADB202
:101D2000002D1CBF206900281DD015F00F0F55D1C4
:101D3000401C2061E168206819B9008985424DDBAB
:101D400011E08278521E12EA151F47D1FFF763FE99
:101D50000646022E12D316F1010F36D02068C16953
:101D60008E4237D30FB90420F2BDE168FFF74CFF74
:101D7000060001D10720F2BD012E01D10220F2BDE3
:101D800016F1010F21D0002100F059F8E8B94FF405
:101D90000072002120683430FFF79CFD00F028F825
:101DA00021680863002704E02068016B491C016377
:101DB0007F1C20688178FFB28F4208D20121017117
:101DC000002100F03CF80028EED00120F2BD016BAC
:101DD000C91B0163E66000F00BF82061E58005F0A7
:101DE0000F00216801EB4010343060610020F2BD2B
:101DF0003146206803E670B504460021FFF74BFF2B
:101E0000D8B900F01BF8C0B961690A780AB9042092
:101E100070BDCA7A12070CD40B22A369002516469E
:101E2000721E2EB111F8015B13F8016BAD1BF6D0D9
:101E30001DB100F006F80028E3D070BD21692068CC
:101E40004FE50021204665E770B504460021FFF705
:101E500022FF05000FD1FFF7F1FF05000BD16069EC
:101E60000078E52818BF002806D001212046FFF79A
:101E700051FF0500EFD07DB9FFF7E0FF05000BD162
:101E80006669202200F09DFD0B22A1693046FFF714
:101E900017FD206801210171284670BD2DE9F84326
:101EA0008846D8F8006000E0761C96F900102F29CB
:101EB00018BF5C29F8D084690B2220212046FFF747
:101EC00009FD002000210246082337562E2F1DD180
:101ED00003E0032A78D20F55491C9757FFB2521CD2
:101EE0002E2FF6D02F2F18BF5C2F01D0212F6BDAA9
:101EF0009019C8F80000212FB4BF24202020E072E0
:101F000079E0082B60D108210B2328469757FFB2B0
:101F1000521C8500EDB2212F03DB2F2F18BF5C2F41
:101F200007D19219C8F80020212FB4BF0427002739
:101F300049E02E2FE5D0994246D2802FA8BF40F02D
:101F4000030001F1010CA7F181051F2D24BFA7F1AA
:101F5000E0051D2D13D295575FFA85FE521CAEF198
:101F600040053F2D27BFAEF180057D2D5D1EA942A6
:101F70002AD20F550CF804E00CF10101C6E70FF26C
:101F8000800500E06D1C95F80090B9F1000F18BFB6
:101F9000B945F7D15FEA090E16D1A7F1410EBEF19E
:101FA0001A0F03D240F00200C0B209E0A7F1610E9F
:101FB000BEF11A0F04D240F00100C0B2203FFFB2C0
:101FC0000F556146A2E709B9062015E02178E529F9
:101FD00004BF05212170082B08BF284600F003012B
:101FE000012908BF47F0100700F00C00042808BFC3
:101FF00047F00807E7720020BDE8F2830000000008
:10200000222A2B2C3A3B3C3D3E3F5B5D7C7F00000F
:1020100013B5044691F900002F2818BF5C2803D19E
:10202000481C0190002001E020688069A0600198B0
:1020300090F90000C0B2202806D200F04BFC00212D
:10204000616116BD00F03AFC01A92046FFF726FFAA
:10205000C8B92046FFF7CFFEA169C97A01F0040292
:1020600058B104280FD1890605D50020A060606111
:10207000002AE9D016BD32B904E022B96069C17AFC
:10208000C906DFD4052016BD10B5044601230A4653
:1020900000F02AF808B1032010BD94F8330294F838
:1020A000321241EA00204AF65521884201D002202E
:1020B00010BD04F26A01DFF8E8078A784B781B024A
:1020C00043EA024294F86A301A43824208D08A7F77
:1020D0004B7F1B0243EA0242097F1143814201D137
:1020E000002010BD012010BD04F13401607800F023
:1020F0008DBFF8B51646026892F90030303BDFF824
:10210000A4470A2B06D292F901503A2D02D1921C13
:10211000026000E023780BB10B20F2BD65680D6012
:102120000DB90C20F2BD287848B1687800F068FF3E
:10213000C10704D40EB140070DD40020F2BD002029
:102140002870687000F0A5FEC10701D50320F2BD1C
:102150001EB1400701D50A20F2BD00260021284605
:10216000FFF792FF0746012F14D105F2F210017913
:10217000002940D0C17A827A120442EA0161427A8F
:1021800041EA0221007A40EA010631462846FFF77B
:102190007BFF0746032F01D10120F2BD002F01BFB5
:1021A00095F8400095F83F1041EA0020B0F5007F17
:1021B0001BD195F84B0095F84A1051EA00200DD13B
:1021C00095F85B0095F85A10090441EA006095F80B
:1021D000591040EA012095F858100843286295F8F4
:1021E0004410E970012918BF022976D1484395F8B7
:1021F0004110A970002970D04A1E11426DD195F886
:10220000461095F8452042EA012129810F2211420A
:1022100063D195F8482095F8473053EA02270ED14C
:1022200095F8572095F856301B0443EA026295F85A
:10223000553042EA032295F8543043EA020795F8F4
:10224000432095F8423053EA022246D0831803EB2C
:1022500011139F4241D3FF1A95F802C0B7FBFCFC53
:10226000BCF1000F39D0012740F6F67EF44528BFB7
:1022700002274FF6F67EF44528BF03270CF1020C27
:10228000C5F81CC09B19EB6292196A62032F11D129
:1022900019BB95F8630095F86210090441EA0060E3
:1022A00095F8611040EA012095F860100843E9694B
:1022B00089000BE089B18018E969022F0FBF49003E
:1022C00001EB410201F0010101EB5201A862286A11
:1022D00001F2FF11B0EB512F01D20D20F2BD4FF0F2
:1022E000FF3028610020E860032F5CD1687195F809
:1022F000650095F8641041EA002082196A610123A3
:1023000005F13401687800F081FE00284BD195F882
:10231000330295F8321241EA00204AF655218842EC
:1023200041D195F8370095F83610090441EA00606C
:1023300095F8351040EA012095F834100843DFF88D
:10234000681588422FD195F81B0295F81A120904D6
:1023500041EA006095F8191240EA012095F8181238
:102360000843DFF8481588421DD195F8230295F8F7
:102370002212090441EA006095F8211240EA012086
:1023800095F820120843E86095F81F0295F81E1290
:10239000090441EA006095F81D1240EA012095F811
:1023A0001C12084328612F706088401C6080E88000
:1023B000002028632871A861F2BD80B500281CBFE9
:1023C0000278002A02D0C2888A4201D0092002BDC8
:1023D000407800F015FEC00701D5032002BD0020A3
:1023E00002BD08B10B207047DFF8B80442680AB19B
:1023F0000023137009B100220A7041600020704769
:102400002DE9F2438AB004460020206002F01F0547
:1024100005F0FE0200F040FA060007A8069002D17F
:1024200000F091F80646059F002E04BF002F0626F7
:102430001C20054278D0002E6ED0042E03D100A8B7
:10244000FFF702FD064645F00805059FC6BB2807B5
:102450003BD500F071FF0146B9730004000EF8731C
:10246000080C3874080E78740020F8723877787782
:10247000B877F877787D397D41EA0020F97EBA7E19
:1024800042EA012141EA00490020B876F876387521
:102490007875009801210171B9F1000F11D00098F1
:1024A000D0F830804946FFF781FB060008D100983C
:1024B000A9F10101C16041460098FFF712FA0646F2
:1024C00036BB280748BF45F020050098006BE06147
:1024D0002762A571787D397D41EA0020F97EBA7EB8
:1024E00042EA012141EA00402061F87FB97F0904F6
:1024F00041EA0060797F40EA0120397F0843E060CB
:102500000020A060A061009820600098C088A08092
:1025100030460BB0BDE8F083F87A112108420ED1A5
:10252000680794D50826F3E7002EC9D1F87AC106CA
:1025300048BF0426ECD4A907C3D5C007C1D50726D8
:10254000E6E707A806900A9900A861E52DE9F0479B
:1025500000F034F9002846D1A879010642D4C0071A
:1025600058BF07207CD5E868A968401AB04218D83F
:10257000064616E0C5F8189000F018F988BF0C461A
:102580002246401900F124014046FFF799F9A04482
:10259000A8682018A860DAF800002018CAF800001F
:1025A000361B002E5BD0A968C805E5D12868837862
:1025B0005B1E13EA5122D4B25CB900290EBF286910
:1025C0006969FFF728FA022808D310F1010F40D0FB
:1025D000686169692868FFF712FA28B9A87940F09C
:1025E0008000A87102203BE004EB0009770A1ED0AE
:1025F000286881783A19914238BF0F1BFBB24A46CE
:102600004146407800F002FD18BBA87940060CD581
:10261000A869A0EB0900B84207D24FF4007205F197
:10262000240108EB4020FFF74BF97C02AFE7AA69D1
:102630004A459FD0A879400607D5012300F038F914
:1026400038B9A87900F0BF00A87100F0C1F80028DF
:1026500090D0A87940F08000A871012000E000200F
:10266000BDE8F0872DE9F04700F0A8F8B8B9A879DF
:10267000010601D5022012E0800758BF07200ED5C1
:10268000E8683118814226D2E868A968884238BFD4
:102690000846E860A87940F02000A8710020BDE855
:1026A000F087C5F8189000F081F888BF0C462246E4
:1026B000414640192430FFF703F9A87940F0400063
:1026C000A871A044A8682018A860DAF800002018B3
:1026D000CAF80000361B002ED6D0A968C805E2D182
:1026E000286883785B1E13EA5122D4B29CB931B9B1
:1026F000296941B9FFF788FA0146296103E0696950
:10270000FFF782FA01460029BED0012915D011F148
:10271000010F45D06961A879400609D50123AA694E
:1027200000F0C6F800283BD1A87900F0BF00A871DE
:1027300069692868FFF763F920B9A87940F080003B
:10274000A87197E704EB0009770A1ED02868817802
:102750003A19914238BF0F1BFBB24A46414600F07E
:10276000AAF8E8B9A869A0EB0900B8420BD24FF467
:10277000007208EB402105F12400FFF7A1F8A879C9
:1027800000F0BF00A8717C029BE7A869484588D08B
:10279000A868E968884284D200F01AF80028F6D0C8
:1027A000A87940F08000A871012078E7A868C005EA
:1027B000C00DC0F5007134468E427047054616467E
:1027C0009A4688460020CAF80000A9882868F4E5DF
:1027D00001234A4605F124012868407800F016BC20
:1027E00038B50446A1882068FFF7E7FD00284AD1E4
:1027F000A1798A0647D548060DD50123A26904F1BF
:102800002401206800F057F808B1012032BDA079FA
:1028100000F0BF00A071E169FFF711FB98BB256ACA
:10282000E87A40F02000E872E0682877E068000469
:10283000000E6877E068000CA877E068000EE87783
:102840002069A87620690004000EE8762069000C53
:1028500028752069000C000A687500F06DFDA875E8
:102860000104090EE975010C2976000E6876A0793D
:1028700000F0DF00A0712068012101712068BDE82F
:102880003240FFF75BB832BD10B50446FFF7A8FF32
:1028900008B90021216010BD00A90AA8FFF729BCD2
:1028A000464154001013002052526141727241613E
:1028B00005F124012868407800F0E1BB417D027DEC
:1028C00042EA0121C27E807E40EA022040EA0140C5
:1028D000A060704700212046FFF7DDB92DE9F147E0
:1028E00081B0884616460022314601A8FFF701FC58
:1028F0005FEA000960D130680169C469A21E8A429A
:1029000028BFC8F8001057D207780025012F17D12B
:10291000022421463068FFF77EF810F1010F02D142
:102920004FF0010940E0012802D14FF002093BE0DD
:1029300000B96D1C641C3068C0698442E9D333E07F
:10294000D0F824A000E061B951463068FEF7C9FF15
:102950005FEA00090AF1010A26D1306834304FF4E9
:1029600000716A1C022F09D1437890F800C05CEA1C
:10297000032308BF1546801C891E13E0C37890F816
:1029800002C04FEA0C4C4CEA036390F801C043EAE2
:102990000C2390F800C04CEA03031B0108BF154646
:1029A000001D091F641ECED130680561032F04BFCE
:1029B00001214171C8F800504846BDE8F6874FF440
:1029C000007200213046FEF785BF2DE9FC41044628
:1029D0000F46904600252646781E85420FDA00AB4A
:1029E000012201A94046FFF7B1FD0098012806D158
:1029F0009DF9040006F8010B6D1C0A28ECD100209B
:102A0000307005B900242046BDE8F68100B583B0DA
:102A1000024608468DF8002001AB012200A9FFF70D
:102A200021FE0198012818BF4FF0FF300EBD70B590
:102A300004460D46002600E0761C94F9000050B1D3
:102A4000294614F9010BFFF7E1FF10F1010FF3D153
:102A50004FF0FF3070BD304670BD0CB42DE9F04F23
:102A600085B081468A460DF1380B002406E04946C0
:102A7000FFF7CCFF10F1010F60D0641C1AF9010BB5
:102A8000002820D02528F2D1002188461AF9010B10
:102A9000302808BF012108D02D2808D1022104E0E8
:102AA0000A2202FB0800A0F130081AF9010BA0F17C
:102AB00030020A2AF4D36C2812BF4C2841F00401DA
:102AC0001AF9010B002800F0A7800646A6F1610262
:102AD0001A2A3CBFA6F1200256B2422E36D0432E0F
:102AE0002FD0442E4ED04F2E4AD0532E04D0552EE8
:102AF00048D0582E48D049E05BF8045B002700E03E
:102B00007F1C78570028FBD10026880707D402E0F5
:102B100000F088F886193846471C4045F8D34946E6
:102B20002846FFF784FF851902E000F07BF845197D
:102B300039464F1C4145F8D310F1010F69D02846A2
:102B400062E049465BF8040B40B220E002224B07EA
:102B500020D55BF8043B442E04D1002B44BF5B42DC
:102B600041F008010025B3FBF2F402FB143676B203
:102B700023460A2E14DB78280CBF272407240EE0F6
:102B80000822E4E70A22E2E71022E0E74946FFF7DD
:102B90003DFF39E0442E5BF8043BE3D1DDE7A619A5
:102BA00000AC30362E556D1C0BB1102DDBD3080751
:102BB00003D500A82D222A546D1C2F46C8074CBFF0
:102BC000302620260024880709D404E049463046F0
:102BD000FFF71CFF04193846471C4045F6D36D1E0D
:102BE000494600A82856FFF711FF0419002DF6D119
:102BF00039464F1C414503D200F014F80419F7E799
:102C000010F1010F05D02046041910F1010F7FF4D7
:102C100035AF4FF0FF3000E0204605B0BDE8F00FC3
:102C20005DF80CFB49462020F0E650F8041B61B12A
:102C300050F8042BD30744BFA9F101039A180023CD
:102C400042F8043B091FFAD1EFE7704762F30F2205
:102C500062F31F42401810F0030308D0C91A1FD3B3
:102C6000DB0748BF00F8012D28BF20F8022D130014
:102C700030B414461546103928BF20E93C00FAD874
:102C8000490728BF20E90C0048BF40F8042D8900FF
:102C900028BF20F8022D48BF00F8012D30BC704736
:102CA000C91818BF00F8012DCB0728BF00F8012D67
:102CB00070470000DFF8681608604868C006FCD45A
:102CC0000868C0B2704710B5DFF85846A06000F041
:102CD000DEF8FF2803D0A0680028F8D110BD01203D
:102CE00010BDDFF84406016841F008010160FF20D3
:102CF000E0E780B5DFF83006016821F0080100F058
:102D0000C5F84FF4FA70FFF7DEFF08B1012002BDED
:102D1000FFF7E7FF002002BD70B504460D46DFF85F
:102D20000466C820706000F0B2F8FF2803D1706814
:102D30000028F8D101E0FE2801D0002070BD00F08D
:102D40005CF84FF6FF728260491EFCD1B5F11001AC
:102D500008E000F058F81D042D0E04F8015B04F89B
:102D6000013B891EF5D10821C2685207FCD5826853
:102D700013041B0E04F8013B04F8012B491EF3D188
:102D800000F083F800F083F8012070BD38B50446E8
:102D90000D464FF4FA70FFF796FF18B32846FFF779
:102DA00089FFFD2D20D000F028F800F01FF8826088
:102DB000491EFAD1F82100F019F800F024F8491E54
:102DC000F9D10821C2685207FCD58268491EF9D1A1
:102DD00000F05BF800F05BF800F059F800F01F001D
:102DE000052801D0002032BD012032BD14F8012B8E
:102DF00014F8013B43EA02227047DFF830050F2147
:102E0000016008217047C3685B07FCD58368826056
:102E1000704738B504460D46200607D504F07F04F8
:102E200000213720FFF7F5FF02282DD2FFF759FFC9
:102E3000FFF75FFF08B9FF2032BD44F04000FFF705
:102E400039FF280EFFF736FF2802000EFFF732FF8A
:102E50002804000EFFF72EFFE8B2FFF72BFF01203A
:102E60000CB9952002E0082C08BF8720FFF722FF4D
:102E70000C2C04BFFF20FFF71DFF0A2400F007F809
:102E8000010601D5641EF9D132BD07210160FF2082
:102E900010E72DE9F04182B008B10120AEE0DFF883
:102EA00084442078800700F1A880DFF8840401685A
:102EB00041F0887101604FF002210161DFF86C542C
:102EC0000720286002206860DFF85C04C1684FF6C4
:102ED00093721140C160C16841F06C01C1608168AA
:102EE000DFF8502411408160816841F4205141F0A5
:102EF00020018160816941F4705141F0F0018161EC
:102F0000416841F068014160016841F008010160D9
:102F1000C82028610A27FFF7BAFF7F1EFBD10026D1
:102F200000210846FFF775FF012856D14FF47A704B
:102F300060604FF4D5710820FFF76BFF01280DF199
:102F400000082ED1FFF7A3FF07F80800781CC7B2CE
:102F5000042FF7D398F80200012804BF9DF803005E
:102F6000AA283AD1606830B14FF08041A920FFF71C
:102F700050FF0028F6D1606878B300213A20FFF7AF
:102F800048FF50BB0027FFF782FF07F808007F1CAF
:102F9000042FF8D39DF80000400654BF04260C26E9
:102FA0001BE00021A920FFF734FF022839BF0226C9
:102FB0004FF0A9080126B046606828B100214046BC
:102FC000FFF727FF0028F7D1606828B14FF40071A0
:102FD0001020FFF71EFF00B100266670FFF781FE8C
:102FE0002EB104202861207800F0FE0004E0FFF7F5
:102FF00080FEFFF776FE012020702078BDE8F68184
:1030000008B101207047C7480078704738B50C46B2
:1030100011461D4600B90DB9042032BDC1480278E1
:10302000D20701D5032032BD4078000758BF4902BE
:10303000012D08D11120FFF7ECFEB0B900F01BF80C
:1030400098B1002511E01220FFF7E3FE68B900F007
:1030500012F800281FBF04F500746D1EEDB2002D9C
:10306000F5D100210C20FFF7D4FEFFF73AFE28002F
:1030700018BF012032BD4FF4007120464CE670B5F8
:103080000C4615461E4600B90EB9042070BDA54871
:103090000178C90701D5032070BD0178490701D522
:1030A000022070BD4078010758BF6D02012E0BD180
:1030B00029461820FFF7ADFE20BBFE212046FFF772
:1030C00065FEF8B100261DE00621084203D0314616
:1030D0009720FFF79EFE29461920FFF79AFE88B930
:1030E000FC212046FFF752FE00281FBF04F50074A4
:1030F000761EF6B2002EF3D1FD210020FFF746FE2A
:1031000000B90126FFF7EDFD300018BF012070BDAA
:103110002DE9FF411446A04608B10420E8E0814EA5
:103120003078C00748BF0320F8D40127707800AD7D
:103130000E2900F2D980DFE801F0080F3F4382D763
:10314000D7D7D7D7AFB2B5BCC900FFF7D2FD00289B
:1031500057D0FFF7C6FDC5E000210920FFF759FE53
:1031600000284AD100F0C7F800284AD0297A687AA6
:103170009DF800209209012A05D100EB0120401C96
:103180000004800959E08909EA7901EB8201AA79F2
:1031900002F0030201EB8221491C89B26A7902F034
:1031A0000F02AB7A02EBD31200F0030002EB4000F7
:1031B000C01F01FA00F040E04FF40070208091E061
:1031C000400715D500218D20FFF723FE002814D1DC
:1031D000FFF75DFE00F08FF8002812D03026FFF7D1
:1031E00056FE761EFBD11020A97A0909884024E0FA
:1031F00000210920FFF70DFE002876D100F07BF8B2
:10320000002872D0E87AA97A727892070BD501F07B
:103210003F01C00900EB4100401C9DF80D108909D9
:10322000491E884009E0C1F38401491C00F00302F3
:10323000400900EBC200401C4843206052E00621D8
:10324000084252D000AA0B210020FFF761FF00289E
:103250004BD19DF80000800902D1A87A400644D5E0
:1032600021686468707800075CBF4902640220200E
:10327000FFF7CFFD002838D121462120FFF7C9FDF7
:10328000002832D100212620FFF7C3FD68BB47F29A
:103290003050FFF718FD24E088F8000022E00021FC
:1032A000092001E000210A20FFF7B3FDE8B9102151
:1032B00014E000213A20FFF7ACFDB0B90424FFF779
:1032C000E6FD08F8010B641EF9D10BE000218D200A
:1032D000FFF79FFD48B9FFF7DAFD40214046FFF7B1
:1032E0001BFD10B1002700E00427FFF7FAFC384669
:1032F00004B0BDE8F081102100A80DE5094841683F
:1033000089B211B1491E89B24160816889B211B197
:10331000491E89B28160017801F0F901017070479E
:1033200008000A404C0E002000000C4000000A403B
:103330001C0002400FC3FFFF00B583B000A800F0DF
:103340001AF8BDF80000A0F2BC709DF80210490503
:1033500041EA40609DF8031040EA01409DF80510E5
:1033600040EAC1209DF8061040EA41109DF8071080
:1033700040EA51000EBD38B5044600F034F80C495F
:1033800009684FF46162B0FBF2F302FB13003C22C8
:10339000B0FBF2F502FB1500E071A571637100202E
:1033A0002071080EE070080CA0702180012032BD51
:1033B00004800D4019490A6822F00C0200F00C004C
:1033C00002E01749086070471043086070471549CC
:1033D00008607047144A0029116814BF084321EAA5
:1033E0000000106070470C48006870470A49086088
:1033F00070470E49086070470D49086070470D48D6
:1034000000680028FBD1704707490968084018BFC9
:103410000120C0B27047000040800D403C800D404C
:103420009007B043FC07B04350800D404C800D40E6
:1034300048800D40180AB043000000000000000062
:1034400000000000000078A44A424AA4780000016D
:103450000101000078DCB6BEB6DC78000001010195
:1034600000001C3E7EFC7E3E1C00000000000000B0
:1034700010387CFE7C38100000000000000030781E
:1034800077BF77783000010101010100387C7EBFF1
:103490007E7C38000101010101000070F8F8F8702D
:1034A0000000000000000000FF8F0707078FFF0FDC
:1034B0000F0F0F0F0F0F007088888870000000003A
:1034C00000000000FF8F7777778FFF0F0F0F0F0F30
:1034D0000F0FE010101AE60E0000010101000000BD
:1034E000004E51F1514E000000000100000000802C
:1034F00080FE043800000101000000008080FE0A08
:10350000C5C57F0101000000000010BA44C744BADD
:1035100010000000010000000000FCF87020000016
:10352000000100000000002070F8FC000000000016
:10353000000100000044C6FFC64400000000010076
:10354000000000BFBF00BFBF00000101000101007B
:10355000000E1F11FF01FF00000000010001008E9E
:10356000BF29FBE3000001010101000000C0C0C051
:10357000C0C00000010101010100002466FF6624B3
:103580000000010101010100000406FF0604000023
:103590000000010000000040C0FFC040000000002B
:1035A00001000000202020F8702000000000000032
:1035B00000002070F8202020000000000000000023
:1035C00000F0000000000000010101010100207076
:1035D000F820F8702000000000000000C0F0FCFFA0
:1035E000FCF0C000000000000000061E7EFE7E1EF3
:1035F00006000000010000000000000000000000C4
:103600000000000000000000BFBF0000000000013B
:10361000010000000007070007070000000000008D
:1036200000000048FE48FE480000000100010000C4
:10363000004C9E93F264000000000300000000C6EE
:10364000E936D82FC70001010000010000E6FF198C
:10365000FFE6300000010100010100000407030043
:103660000000000000000000007CFE83010000005C
:10367000000001010000000183FE7C000000010148
:103680000000000010547C387C5410000000000042
:103690000000002020F8F8202000000000000000BA
:1036A000000080808000000000050703000000206B
:1036B000202020200000000000000000000080808A
:1036C0008000000000010101000000C0F03C0F0379
:1036D000000101000000000000FEFF01FFFF0000EC
:1036E000010101010000000406FFFF0000000000CE
:1036F000010100000086C7713F0E000001010101B9
:10370000010000829311FFEE0000000101010000A2
:1037100000787F47F8F84000000000010100009F9A
:103720009F11F1E1000000010101000000F8FE1707
:10373000F1E000000001010100000001C1F93F07B4
:10374000000000010100000000EEFF11FFEE00008C
:10375000000101010000000E9FF17F1E0000010129
:103760000000000000008C8C8C00000000010101B2
:10377000000000008C8C8C00000000050703000096
:103780000010386CC68300000000000001000048F3
:103790004848484800000000000000000083C66C54
:1037A000381000000100000000000006A7B11F0E45
:1037B0000000000101000000007CFE8339453E004E
:1037C00000000101010100FCFE23FEFC00000101DC
:1037D0000001010000FFFF11FFEE000001010101E7
:1037E000000000FEFF01C7C600000001010100004B
:1037F00000FFFF01FFFE000001010101000000FFCA
:10380000FF111101000001010101010000FFFF1182
:103810001101000001010000000000FEFF01F3F2B1
:10382000000000010101000000FFFF10FFFF000089
:10383000010100010100000001FFFF010000000183
:103840000101010000C0C000FFFF000000010101F4
:10385000000000FFFF38EFC7000001010001010078
:1038600000FFFF0000000000010101010100FFFF57
:103870001C701CFFFF0101000000010100FFFF1C84
:1038800030FFFF0001010000010100FEFF01FFFE0B
:10389000000000010101000000FFFF111F0E0000E9
:1038A00001010000000000FEFF01FFFE000000011A
:1038B0000307040000FFFF11FFEE000001010001FB
:1038C000010000CE9F39F3E6000000010101000075
:1038D000000101FFFF01010000000101000000FFE5
:1038E000FF00FFFF0000000101010000007FFF80DA
:1038F000FF7F00000000010000003FFFC03CC0FF50
:103900003F0001010001010000C7EF38EFC70000D0
:10391000010100010100000F1FF0F01F0F00000067
:103920000101000000C1F13D0F0300000101010190
:1039300001000000FFFF010100000003030202007C
:1039400000030F3CF0C00000000000000101000176
:1039500001FFFF0000000202030300000004060351
:10396000060400000000000000000000000000004D
:10397000000202020202020200000307040000002B
:1039800000000000000000C0E828F8F0000000017E
:103990000101010000FFFF08F8F000000101010132
:1039A000000000F0F80898900000000101010000FC
:1039B00000F0F808FFFF000000010101010000F025
:1039C000F82838B000000001010100000008FEFFE7
:1039D0000909000000010100000000387C44FCFCE3
:1039E000000001020203010000FFFF08F8F00000E0
:1039F000010100010100000008F9F90000000001C8
:103A000001010100000008F9F900000002020301B1
:103A1000000000FFFF70D8880000010100010100D4
:103A2000000001FFFF000000000101010100F8F8A3
:103A300018F018F8F00101000000010100F8F80882
:103A4000F8F0000001010001010000F0F808F8F0B2
:103A5000000000010101000000F8F808F8F0000083
:103A600007070101000000F0F808F8F80000000165
:103A70000107070000F8F810181800000101000005
:103A8000000000307868E8C8000001010101000072
:103A90000008FEFE0800000000000101010000F81F
:103AA000F800F8F800000001010101000078F8803A
:103AB000F878000000000100000078F880F080F83D
:103AC00078000101000101000098F860F8980000FA
:103AD0000101000101000078F880F8780000040678
:103AE000030100000088C8683818000001010101C6
:103AF00001000010FEEF01010000000001010100C3
:103B00000000DFDF000000000007070000000001E8
:103B1000EFFE100000000101000000000006030796
:103B20000603000000000000000000F0988C98F0F0
:103B300000000101010101004400114400110004D2
:103B4000000104000100AA0055AA0055000A000562
:103B50000A000500AA5555AA55AA550A05050A05E1
:103B60000A05000000FF0000000000000F00000038
:103B7000202020FF0000000000000F000000505037
:103B800050FF0000000000000F0000002020FF0098
:103B9000FF000000000F000F00002020E020E000E8
:103BA0000000000F000F0000505050F00000000017
:103BB00000000F0000005050DF00FF000000000F69
:103BC000000F00000000FF00FF000000000F000FCA
:103BD00000005050D010F0000000000F000F000057
:103BE00050505F407F0000000000000000002020D7
:103BF0003F203F0000000000000000005050507FB8
:103C000000000000000000000000202020E0000074
:103C1000000000000F0000000000003F20202000F6
:103C20000000000000002020203F20202000000095
:103C300000000000202020E02020200000000F00D5
:103C40000000000000FF2020200000000F00000006
:103C50002020202020202000000000000000202044
:103C600020FF2020200000000F000000000000FFC7
:103C70005050500000000F0000000000FF00FF2027
:103C80002000000F000F000000007F405F50500038
:103C90000000000000000000F010D0505000000FA5
:103CA000000F000050505F405F50500000000000C7
:103CB00000005050D010D0505000000F000F0000F6
:103CC0000000FF00DF505000000F000F00005050B8
:103CD0005050505050000000000000005050DF00D5
:103CE000DF505000000F000F00005050505F505048
:103CF000500000000000000020203F203F20200056
:103D0000000000000000505050D050505000000003
:103D10000F0000002020E020E0202000000F000F16
:103D2000000000003F203F202000000000000000B5
:103D30000000007F50505000000000000000000014
:103D400000F05050500000000F0000000000E02084
:103D5000E0202000000F000F00002020FF00FF20C7
:103D60002000000F000F000000FFFF1213030000EF
:103D7000010101010100505050DF5050500000007F
:103D80000F0000002020203F000000000000000085
:103D90000000000000E02020200000000F000000D4
:103DA000FFFFFFFFFFFFFF0F0F0F0F0F0F0FC0C031
:103DB000C0C0C0C0C00F0F0F0F0F0F0FFFFFFFFFDE
:103DC0000000000F0F0F0F00000000000000FFFFB9
:103DD000FF000000000F0F0F3F3F3F3F3F3F3F00FE
:103DE00000000000000000FEFF11938200000001AF
:103DF0000101000000F0F8282808900000010101EE
:103E00000100000101FCFC010100000101010100B1
:103E100000030BF8FB030000000101010100007822
:103E20008430308478000000000000000078FA84BC
:103E3000FA780000040603010000000E1F111F0E97
:103E4000000000000000000000F3FB283BB300006E
:103E50000001010100000000387C7C3800000000F7
:103E600000000000000000303000000000000000F2
:103E7000000000408000FE0202000000010100007E
:103E8000FFFF1CFFFF2727010100010100007488CC
:103E9000040488740001000101000100000078782A
:103EA0007878000000000000000000000000000022
:103EB000000000000000000000FCFE23FEFC0000EB
:103EC00001010001010000FFFF11F1E1000001010B
:103ED0000101000000FFFF11FFEE000001010101E0
:103EE000000000FFFF0101010000010100000000CF
:103EF00000FEFF01FFFF000303010101030300FFB8
:103F0000FF111101000001010101010000EF10FF8C
:103F1000FF10EF0001000101000100821111FFEE0E
:103F2000000000010101000000FFFF701CFFFF0006
:103F300001010000010100FFFF711DFFFF000101F1
:103F40000000010100FFFF38EFC700000101000180
:103F5000010000FEFF01FFFF000001010001010060
:103F6000FFFF1C701CFFFF0101000000010100FFAA
:103F7000FF10FFFF000001010001010000FEFF0132
:103F8000FFFE000000010101000000FFFF01FFFF34
:103F9000000001010001010000FFFF111F0E0000E1
:103FA00001010000000000FEFF01C7C60000000183
:103FB00001010000000101FFFF01010000000101FB
:103FC0000000008F9F10FFFF0000000101010000B2
:103FD000003C42FFFF423C0000000101000000C71E
:103FE000EF38EFC7000001010001010000FFFF00F2
:103FF000FFFF0000010101010303000F1F10FFFF7D
:104000000000000000010100FFFF00FF00FFFF01B2
:10401000010101010101FFFF00FF00FFFF0101019C
:10402000010103030701FFFF10F0E000000101019F
:104030000100FFFF10F0E0FFFF010101010001019D
:1040400000FFFF10F0E0000001010101000000820C
:104050009311FFFE0000000101010000FFFF18FFA7
:1040600001FFFE0101000101010000EEFF11FFFF51
:10407000000001010001010000C0E828F8F0000084
:1040800000010101010000F0F828E8C4000000016F
:104090000101000000F8F828F8D00000010101013A
:1040A000000000F8F8080808000001010000000006
:1040B00000F0F808F8F8000303010101030300F021
:1040C000F82838B0000000010101000000D820F8F5
:1040D000F820D80001000101000100900828F8D064
:1040E000000000010101000000F8F8C060F8F800CD
:1040F00001010000010100F8F8C066FBF8000101B1
:104100000000010100F8F870D888000001010001EA
:10411000010000F0F808F8F80000010100010100BA
:10412000F8F8183018F8F80101000000010100F853
:10413000F820F8F8000001010001010000F0F80883
:10414000F8F0000000010101000000F8F808F8F89C
:10415000000001010001010000F8F808F8F000007B
:1041600007070101000000F0F80898900000000126
:1041700001010000000808F8F8080800000001012B
:1041800000000078F880F8780000040603010000C1
:1041900000F008F8F808F000000107070100009897
:1041A000F860F898000001010001010000F8F80033
:1041B000F8F8000001010101030300387840F8F825
:1041C0000000000000010100F8F800F800F8F80114
:1041D000010101010101F8F800F800F8F8010101FE
:1041E000010103031818F8F820E0C00000010101E4
:1041F0000100F8F820E0C0F8F80101010100010118
:1042000000F8F820E0C0000001010101000000906A
:10421000082828F8F000000101010100F8F860F812
:1042200008F8F00101000101010000B0F848F8F8B9
:10423000000001010001010000000000000000007A
:1042400000000000000078A44A424AA4780000015F
:104250000101000078DCB6BEB6DC78000001010187
:1042600000001C3E7EFC7E3E1C00000000000000A2
:1042700010387CFE7C381000000000000000307810
:1042800077BF77783000010101010100387C7EBFE3
:104290007E7C38000101010101000070F8F8F8701F
:1042A0000000000000000000FF8F0707078FFF01DC
:1042B0000101010101010070888888700000000080
:1042C00000000000FF8F7777778FFF010101010168
:1042D0000101E010101AE60E0000010101000000CB
:1042E000004E51F1514E000000000100000000801E
:1042F00080FE043800000101000000008080FE0AFA
:10430000C5C57F0101000000000010BA44C744BACF
:1043100010000000010000000000FCF87020000008
:10432000000100000000002070F8FC000000000008
:10433000000100000044C6FFC64400000000010068
:1043400000000000BF00BF000000000100010000ED
:1043500000001F11FF01FF00000000010001009696
:10436000292929D20000000101010000008080807D
:1043700080800000010101010100002466FF662425
:104380000000010101010100000406FF0604000015
:104390000000010000000040C0FFC040000000001D
:1043A00001000000202020F8702000000000000024
:1043B00000002070F8202020000000000000000015
:1043C00000C0000000000000010101010100207098
:1043D000F820F8702000000000000000C0F0FCFF92
:1043E000FCF0C000000000000000061E7EFE7E1EE5
:1043F00006000000010000000000000000000000B6
:10440000000000000000000000BF000000000000ED
:10441000010000000000070007000000000000008D
:1044200000000048FE48FE480000000100010000B6
:10443000004C929392640000000001000000008490
:104440004A249048860001000000010000F6090996
:1044500009F6300000010101000100000002060021
:104460000000000000000000007C8201010000004C
:10447000000001010000000101827C000000010138
:104480000000000000547C107C540000000000007C
:1044900000000010107C1010000000000000000060
:1044A000000000808000000000000001000000000B
:1044B000202020000000000000000000000000009C
:1044C00000000000000001000000008060180601EC
:1044D000000100000000000000FE010101FE0000DC
:1044E000000101010000000402FF000000000000C4
:1044F0000100000000864121110E000001010101B0
:1045000001000082111111EE000000010101000004
:10451000003E404040FE4000000000000100008FCF
:10452000090909F1000000010101000000FE11115C
:1045300011E2000000010101000000018161190782
:10454000000000010000000000EE111111EE00005B
:10455000000101010000000E1111917E0000010117
:1045600001000000000000880000000000000000C2
:104570000000000000C80000000000000000000073
:1045800000102844820100000000000001000048E3
:104590004848484800000000000000000001824434
:1045A000281000000100000000000006A111110EFB
:1045B0000000000100000000007C820139453E003F
:1045C00000000101010100FC222122FC0000010089
:1045D0000000010000FF111111EE000001010101B6
:1045E000000000FE010101C6000000010101000001
:1045F00000FF010101FE000001010101000000FFB8
:1046000011111101000001010101010000FF111150
:104610001101000001000000000000FE010121E284
:10462000000000010101000000FF101010FF000059
:10463000010000000100000001FF01000000000176
:104640000101000000C0000000FF000000010101A6
:10465000000000FF101028C700000100000001004A
:1046600000FF00000000000001010101010000FF47
:104670000C70700CFF0001000000000100FF08102A
:104680002040FF0001000000000100FE010101FECA
:10469000000000010101000000FF1111110E0000D7
:1046A00001000000000000FE010101FE0000000109
:1046B0000101010300FF111131CE000001000000D3
:1046C000010000CE111111E60000000101010000FF
:1046D000000101FF0101000000000100000000FFD7
:1046E000000000FF0000000101010000007F8000C9
:1046F000807F0000000001000000007F807C807F40
:10470000000000010001000000C7281028C70000B9
:10471000010000000100000F10E0100F0000000079
:104720000100000000814139050300000101010181
:1047300001000000FF010100000000010101000074
:1047400000030C30C0000000000000010000000069
:104750000101FF000000000101010000000402014E
:104760000204000000000000000000000000000043
:104770000000020202020200000007030000000025
:1047800000000000000000C0282828F00000000100
:104790000101000000FF080808F00000010101010C
:1047A000000000F00808089000000001010100006E
:1047B00000F0080808FF000000010101010000F0FE
:1047C0004848487000000001010100000008FE098F
:1047D000090100000001000000000030484848F0D6
:1047E000000000010101000000FF080808F00000BF
:1047F00001000000010000000009F90000000000B5
:10480000010101000080000AFA000000000101001F
:10481000000000FF2020D00800000100000001007F
:1048200000000001FF00000000000101010000F88D
:1048300010E010F8000001000000010000F8080876
:1048400008F0000001000000010000F0080808F076
:10485000000000010101000000F848484830000055
:104860000100000000000030484848F80000000047
:104870000000010000F8100808100000010000000E
:1048800000000010282828C80000010101010000D4
:104890000008FE080800000000000101010000F807
:1048A000000000F800000001010101000078800014
:1048B0008078000000000100000000F880F080F81F
:1048C0000000000100010000000890609008000056
:1048D0000100000001000038404040F800000001E5
:1048E000010100000088484828180000010101016A
:1048F00001000010EE0101010000000001010100B3
:10490000000000CF000000000000010000000001D6
:1049100001EE100000000101000000000006020787
:104920000203000000000000000000F0888488F00E
:1049300000000000000000004400114400110000CD
:10494000000100000100AA0055AA00550000000166
:1049500000000100AA5555AA55AA55000101000101
:104960000001000000FF0000000000000100000046
:10497000202020FF00000000000001000000505037
:1049800050FF000000000000010000002020FF0098
:10499000FF0000000001000100002020E020E000F6
:1049A0000000000100010000505050F00000000025
:1049B0000000010000005050DF00FF000000000177
:1049C000000100000000FF00FF00000000010001E6
:1049D00000005050D010F000000000010001000065
:1049E00050505F407F0000000000000000002020C9
:1049F0003F203F0000000000000000005050507FAA
:104A000000000000000000000000202020E0000066
:104A100000000000010000000000003F20202000F6
:104A20000000000000002020203F20202000000087
:104A300000000000202020E02020200000000100D5
:104A40000000000000FF2020200000000100000006
:104A50002020202020202000000000000000202036
:104A600020FF20202000000001000000000000FFC7
:104A7000505050000000010000000000FF00FF2027
:104A8000200000010001000000007F405F50500046
:104A90000000000000000000F010D05050000001A5
:104AA0000001000050505F405F50500000000000C7
:104AB00000005050D010D050500000010001000004
:104AC0000000FF00DF5050000001000100005050C6
:104AD0005050505050000000000000005050DF00C7
:104AE000DF5050000001000100005050505F505056
:104AF000500000000000000020203F203F20200048
:104B0000000000000000505050D0505050000000F5
:104B1000010000002020E020E02020000001000132
:104B2000000000003F203F202000000000000000A7
:104B30000000007F50505000000000000000000006
:104B400000F0505050000000010000000000E02084
:104B5000E02020000001000100002020FF00FF20D5
:104B6000200000010001000000FD252425050000B3
:104B7000010101010100505050DF50505000000071
:104B8000010000002020203F000000000000000085
:104B90000000000000E020202000000001000000D4
:104BA000FFFFFFFFFFFFFF01010101010101E0E045
:104BB000E0E0E0E0E001010101010101FFFFFFFF92
:104BC00000000001010101000000000000FFFFFFE4
:104BD000FF000000010101011F1F1F1F1F1F1F00F9
:104BE00000000000000000FE111111820000000111
:104BF0000101000000F028280890000000010101D8
:104C00000000000101FC01010000000101010000A1
:104C100000020A08FA020000000101010100007808
:104C200084303084780000000000000000384244E6
:104C300042F80000000101010000000E11110E00F9
:104C4000000000000000000000F02B282BB0000046
:104C50000001010100000000081C08000000000025
:104C600000000000000000303000000000000000E4
:104C7000000000408000FE02020000000101000070
:104C8000FF043840FF190001000000010000748893
:104C9000040488740001000101000100000038389C
:104CA00038000000000000000000000000000000CC
:104CB000000000000000000000FC222122FC000097
:104CC00001000000010000FF090909F100000101D5
:104CD0000101000000FF111111EE000001010101AE
:104CE000000000FF010101010000010000000000C0
:104CF00000FE010101FF000101010101010100FFAE
:104D000011111101000001010101010000EF10FF6C
:104D100010EF00000100010001000082111111EEEE
:104D2000000000010101000000FF403008FF00000A
:104D300001000000010000FF403308FF00000100F7
:104D40000000010000FF101028C700000100000053
:104D5000010000FE010101FF000001000000010050
:104D600000FF0C700CFF000001000000010000FFBC
:104D7000101010FF000001000000010000FE010102
:104D800001FE000000010101000000FF010101FF20
:104D9000000001000000010000FF1111110E0000D1
:104DA00001000000000000FE010101C6000000013A
:104DB00001010000000101FF0101000000000100ED
:104DC0000000008F101010FF000000010101000022
:104DD000003C42FF423C000000000100000000C710
:104DE000281028C7000001000000010000FF00009B
:104DF00000FF0000010101010101000F101010FF70
:104E0000000000000000010000FF00FF00FF0000A4
:104E100001010101010000FF00FF00FF000001018E
:104E20000101010101FF080808F000000101010172
:104E3000000000FF10E000FF000001010000010081
:104E400000FF080808F000000101010100000082D5
:104E5000111111FE000000010101000000FF18FF08
:104E600001FF000001000101010000EE111111FF1E
:104E7000000001000000010000C0282828F0000008
:104E800000010101010000F8242424C200000001F7
:104E90000101000000F8282828D0000001010101CC
:104EA000000000F8080808080000010000000000E9
:104EB00000F0080808F8000101010101010100F0FB
:104EC000282828B0000000010101000000D820F8C7
:104ED00020D800000100010001000090082828D01F
:104EE000000000010101000000F8804020F80000EF
:104EF00001000000010000F8804422F800000100D9
:104F00000000010000F8202050880000010000008F
:104F1000010000F0080808F800000100000001008E
:104F200000F8106010F8000001000000010000F817
:104F3000202020F8000001000000010000F0080817
:104F400008F0000000010101000000F8080808F85E
:104F5000000001000000010000F84848483000004F
:104F600001000000000000F00808089000000001A7
:104F700001010000000808F8080800000000010016
:104F800000000038404040F800000001010100002E
:104F9000003048F848300000000001000000000820
:104FA00090609008000001000000010000F800007F
:104FB00000F800000101010101010038404040F803
:104FC000000000000000010000F800F800F80000F8
:104FD00001010101010000F800F800F800000101E2
:104FE0000101010108F8202020C000000101010199
:104FF000000000F820E000F80000010101000100BD
:1050000000F8202020C000000101010100000090F4
:10501000082828F0000000010101000000F820F835
:1050200008F8000001000101010000B0484848F8FC
:10503000000001000000010080B5012000F0CFFD5C
:1050400000F0E0FD0128FBD10420FEF7B3F9FEF7E4
:10505000D6F94FF40040FEF7CFF9FEF7D0F9012062
:10506000FEF7AFF901211020FEF7B4F9DFF874095B
:105070004FF00061016001BD2DE9F04104460D468D
:105080009046DFF864793E7804203870202220466C
:1050900000F04BFF0320387042462946204600F0BE
:1050A00044FF3E70BDE8F0812DE9F84380460D468F
:1050B0001646994605F13002D2B23421FFF7DCFFE3
:1050C00000F0DAFF0446DFF820791EE0012C0BD156
:1050D000B54208BFA9F101056D1C05F13002D2B23D
:1050E00034214046FFF7C8FF022C07D14D4508BFC9
:1050F000751C6D1E00F016F8FFF7BEFF00F0BCFF38
:10510000A042FBD000F0B8FF0446002CDED100F036
:10511000B3FF0028FBD000F005F800F006FFE8B26E
:10512000BDE8F2830420387005F13002D2B2342198
:10513000404670472DE9F843FEF755F980464FF495
:105140006167B8FBF7F6DFF8A44800F01DFB00F03C
:105150000EFB3A2234212D2000F0E7FE00F021FB67
:1051600000F0FBFA00F0E1FE3A2234213F20D2E2C7
:105170002DE9F041DFF874480023022261792120F3
:10518000FFF792FF064621790A25022E0BD104294A
:1051900024BF0020207100230322217900F05CFB52
:1051A00000F1140603E000F055FB05FB06060023A2
:1051B0000522E1783320FFF777FF07460023092215
:1051C000A1783920FFF770FF80460023052261781F
:1051D0004520FFF769FF4FF4616105FB07823C231F
:1051E0005A4301FB062105FB001500230922217803
:1051F0004B20FFF759FF4019BDE8F08180B50FF64D
:105200001C020C2100F05FF80FF62802162100F0B6
:105210005AF80FF63402202100F055F800F02CFF68
:105220000028FBD100F028FF0028FBD001BD2DE9AC
:10523000F04700F014FA00F051FA0FF6240000F0E5
:10524000D8FF00F019FF0028FBD00FF6380841F214
:105250003429DFF89CA7DAF80000484504BFDAF8E3
:105260004800B0F5004F1DD00FF6000200F02AF8FC
:105270000120FEF7ACF80020FEF7A9F8FFF7DCFEEE
:105280000020FEF7B3F8FEF7BAF800F01FF8FFF7BA
:1052900051FFFFF76DFFFEF7A9F8FEF7B0F8CAF867
:1052A000009007E000F012F8FFF744FFFFF760FFFF
:1052B000FEF79CF8FEF7A3F837702560BDE8F0878D
:1052C0000FF640022A21002000F061BE42462A214A
:1052D000002000F05CBE80B5FFF7A9FFCAE1F8B579
:1052E00000F0BDF900F0FAF90FF2B07000F081FFA4
:1052F00000F0C2FE0028FBD000F0EAF904BF806C89
:10530000B0F5004F02D0FFF779FF0EE00FF2747294
:10531000FFF7D8FF01E0FFF70DFF00F0ADFE00281A
:10532000F9D100F0A9FE0028FBD0CBE110F0030F6B
:1053300001D0002070476421B0FBF1F201FB1201A3
:1053400009B1012070474FF4C871B0FBF1F201FBC5
:105350001200401E8041C00F704770B5DFF89446C0
:10536000257860780646012818BF032E08D0052E40
:1053700018BF072E04D0082E1CBF0A2E0C2E09D1F0
:105380001F2D1BD30C2E1DD1012601256088401C2A
:10539000608019E0042E18BF062E03D0092E18BF16
:1053A0000B2E02D11E2D0DD208E0022E0CD11C2D89
:1053B00004D305D16088FFF7B9FF18B16D1C03E075
:1053C0001D2D01D1761C01256670257060886178DD
:1053D00000EB0140217800EB0160DFF81C1608604B
:1053E000BDE87040FEF70BB810B50400104618BFBA
:1053F000002924D018B3012918BF032908D0052992
:1054000018BF072904D008291CBF0A290C2901D17B
:10541000202C14D2042918BF062903D0092918BF4B
:105420000B2901D11F2C0AD2022904D1FFF77EFFDC
:1054300018B11E2C03D2012010BD1D2CFBD300205F
:1054400010BD38B5DFF8B0050068DFF8A845010EDB
:105450002170010C617060800A25207800F042F80C
:10546000252000F062FD207800F06EF92B2000F07E
:105470005CFD2E223421312000F057FD607800F0D1
:1054800031F8372000F051FD607800F05DF93D20E3
:1054900000F04BFD2E223421432000F046FD6088B1
:1054A0004FF47A7190FBF1F000F052F9492000F0CE
:1054B0003CFD6088642190FBF1F000F045F94F203D
:1054C00000F033FD608890FBF5F000F03DF95520C9
:1054D00000F02BFD608800F037F95B20BDE8384014
:1054E00000F023BD90FBF5F000F13002D2B2342180
:1054F00070472DE9F84F64244FF47A780A26DFF8D4
:10550000F4741CE00FF2A0520C2100F040FD0FF2E9
:10551000AC521621FFF7D7FE40F6C41000F002FF90
:105520000FF2AC520C21FFF7CEFE0FF2B85216214B
:10553000FFF7C9FE3D7087F80190A7F802A000238D
:105540000322387890FBF6F1C9B22520FFF7ACFDB5
:105550000546387800F05BF82B20FFF7A5FD06FB29
:10556000050500230122787890FBF6F1C9B23720B7
:10557000FFF79AFD814678780023022290FBF6F12E
:1055800006FB1101C9B23D20FFF78EFD06FB09099C
:1055900001230222788890FBF8F1C9B24920FFF775
:1055A00083FD8246788890FBF4F000F030F84F20BD
:1055B000FFF77AFD8346788890FBF6F000F027F835
:1055C0005520FFF771FD798804FB0BF208FB0A22D6
:1055D00006FB002A0023092291FBF6F006FB1011BE
:1055E000C9B25B20FFF760FD824452464946284617
:1055F000FFF7FAFE002885D00AEB094000EB0560B2
:10560000DFF8F4130860BDE8F14FFDF7F8BE0023A2
:10561000092290FBF6F106FB1101C9B27047F8B5FB
:1056200000F01DF800F05AF80FF2CC4000F0E1FD58
:1056300000F022FD0028FBD000F04AF804BF806C87
:10564000B0F5004F02D0FFF7D9FD05E0FFF738FEB7
:10565000FFF7F7FEFFF74DFF37702560F1BDDFF86C
:105660009C432568DFF88063377800F0D7BE80B5AB
:10567000FFF7D5FFBDE8014000F0F7BDF8B5FFF733
:10568000EEFF00F02BF80FF2904000F0B2FD00F0BA
:10569000F3FC0028FBD000F01BF804BF806CB0F5D1
:1056A000004F02D0FFF7AAFD0CE0FFF709FE01E072
:1056B000FFF7C7FE00F0E0FC0028F9D100F0DCFCA9
:1056C0000028FBD037702560BDE8F14000F0CDBD6B
:1056D000C748016841F2342291427047042030707B
:1056E000C748206070472DE9F843C648D0F80080CD
:1056F0000FF230423421212000F049FC4FF4616761
:10570000B8FBF7F6C04C00F03FF800F030F800F0BE
:1057100048F800F022F800F008FC07FB1687FFB2FB
:1057200097FBF5F66670607800F012F8452000F0FF
:10573000FCFB05FB16702070207800F009F84B2068
:10574000BDE8F84300F0F1BB90FBF5F105FB11005B
:1057500000F13002D2B23421704705FB1960A0700D
:10576000A07800F13002D2B2342139207047B6FB64
:10577000F5F005FB10602071207900F13002D2B203
:105780003421272000F0D1BB0A25F0B290FBF5F0C0
:105790006071607900F13002D2B23421212000F032
:1057A000C4BB07FB16883C27B8FBF7F6F6B296FB9E
:1057B000F5F984F80390E07800F13002D2B2342198
:1057C000332000F0B2BB2DE9F0418F4D00230222BF
:1057D00069792120FFF768FC044629790A26022C02
:1057E0000BD1042924BF002028710023032229792A
:1057F00000F032F800F1140403E000F02BF806FB8F
:10580000040400230522E9783320FFF74DFC074606
:1058100000230922A9783920FFF746FC06FB070779
:105820000023052269784520FFF73EFC80460023CF
:10583000092229784B20FFF737FC06FB08004FF4BC
:1058400061613C227A4301FB042140186F490860E2
:10585000BDE8F08100230922272025E42DE9F0414D
:10586000664C2568604E96F8008000F0D7FDFFF783
:1058700035FF0FF2B82000F0BCFC00F0FDFB002863
:10588000FBD05B4F386841F23421884204BFB86CCA
:10589000B0F5004F02D0FFF7B1FC13E000F03DF887
:1058A000B868FDF7A6FDFFF71EFFFFF78CFFFDF7B9
:1058B000A0FDFDF7A4FD01212020FDF78BFD54483C
:1058C0000121016086F800802560BDE8F04100F00C
:1058D000CCBCF8B5FFF7C3FEFFF700FF0FF268205E
:1058E00000F087FC00F0C8FB0028FBD0FFF7F0FEBB
:1058F00004BF806CB0F5004F02D0FFF77FFC0BE0D7
:1059000000F00BF8FFF7EFFE00F0B6FB0028FBD12C
:1059100000F0B2FB0028FBD0D4E60FF220222A21AF
:105920001B2000F034BBF8B501214FF0006000F0FF
:10593000B8F9FFF781FB2F4C2D4D286841F2342137
:10594000884232D000F06AFD0FF208220C21FFF7E6
:10595000BAFC0FF218221621FFF7B5FC0FF2242231
:105960002021FFF7B0FC00F087FB0646052EFAD099
:1059700046B900F081FBB042FBD0FFF758FCFFF7BF
:105980004EFE0DE001202070607040F2DA70608001
:1059900020486860FDF733FD0020A860FDF72FFD6B
:1059A00000F06AFBB042FBD0F1BD6868C0B20116DE
:1059B0002170011461706080FDF715FDC4B2164DB1
:1059C00094FBF5F66EB1002702E0FFF7C6FC7F1CE2
:1059D000FFB2B742F9DB05FB1640BDE8F240FDF728
:1059E00005BDF1BD00E100E0600E002000130020C5
:1059F00000800D402013002004800D405C0E00202C
:105A0000400D00204C800D400813002008800D4000
:105A1000F4120020DA0701017F51010052544320A3
:105A20006973206E6F7420636F6E66696775726547
:105A300064000000506C656173652C2075736520EF
:105A4000746865200000000054696D652041646A37
:105A5000757374206D656E752E2020202000000067
:105A600054696D652061646A7573740052544320F3
:105A7000697320636F6E666967757265642E2E2E7A
:105A800000000000202020202020202054494D45E7
:105A900020202020202020200000000054696D6577
:105AA0002073686F77000000202020496E76616CBB
:105AB000696420646174652E00000000202020527B
:105AC00065706561742C20706C656173652E0000D3
:105AD00020202020202020202020202020202020C6
